:020000040800F2
:10000000100A0020753F0008453C0008473C0008E6
:10001000493C00084B3C00084D3C00080000000033
:100020000000000000000000000000004F3C00083D
:10003000513C000800000000533C0008553C0008FB
:10004000994000089D400008A1400008A540000814
:10005000A9400008AD400008B1400008B5400008C4
:10006000B9400008BD400008C1400008C540000874
:10007000C9400008CD400008D1400008D540000824
:10008000D9400008DD400008E1400008E5400008D4
:10009000E9400008ED400008F1400008F540000884
:1000A000F9400008FD400008014100080541000832
:1000B000094100080D4100081141000815410008E0
:1000C000194100081D410008214100082541000890
:1000D00029410008573C00082D4100083141000823
:1000E00035410008394100083D4100082DE9F04341
:1000F0009FB000BF65A6269CDFF8B48A8DF83B4010
:10010000029100240B944FF0FF37044691461D46A0
:100110000AE019F8011B0298A0470028029000F09D
:10012000A1800B98401C0B9099F8000050B1252835
:10013000EFD10021002205910692079108920991C2
:100140000A9203E00B98A5E041F0010119F8010FB4
:100150002028F9D023280CD02B2804D02D2805D016
:10016000302809D080E041F00201EFE741F00401BE
:10017000ECE741F00801E9E741F01001E6E70D92F4
:100180000AE00D98404505DA00EB800002EB4002E2
:10019000303A0D9209F1010999F80020A2F13000DE
:1001A0000A28EED399F800002E2818BF0C9726D104
:1001B00019F8010F2A2808D12868286009F10109D7
:1001C00050F8042B28600C9219E02D280CBF09F17F
:1001D0000109002000220C920BE040B90C9A424524
:1001E00005DA02EB820203EB4203303B0C9309F188
:1001F000010999F80030A3F130020A2AEDD3ADF8D5
:100200003810304699F8001000F0A6FE08B119F831
:10021000010B8DF83A009DF83A00682805D199F84D
:10022000000068280CD1622106E06C2804BF99F810
:1002300000006C2804D171218DF83A1009F10109F0
:1002400010A804902A4619F8013B6946204600F0A0
:1002500061F838B910AA6946204600F08FF90028E5
:100260007FF562AF384615E02A2888D12A682A60CF
:1002700052F8040B2A6000280D9003D540420D90DF
:1002800041F0040109F101098CE70000686A6C740F
:100290007A4C00001FB0BDE8F083622820D06828A7
:1002A00011D06A2803D06C2827D0712825D108687E
:1002B000C01D20F007000860D0E900230830086066
:1002C000194610467047002A0A680A60106803D071
:1002D000121D0A6000B217E0121D0A6080B217E01A
:1002E000002A0A680A60106803D0121D0A6040B232
:1002F0000AE0121D0A60C0B20AE0002A0A680A6019
:10030000106803D0121D0A60C1177047121D0A60E1
:100310000021704770B51C460D46B4F125002E69CA
:10032000114600F019811C3868D0001F022865D9D9
:10033000133842D0093861D0801E16D0401E1ED01E
:10034000401E02285AD9001F19D0401F00F081809A
:10035000401E32D0401E00F0CB80C01E00F0DA807C
:10036000801E2AD0C01E28D0FCE06869421C6A6149
:100370000A680A6052F8043B0A603354FCE095F8BE
:100380003A000122FFF789FFC5E90001002904D5E1
:100390006869411C69612D220DE0288F810704D511
:1003A0006869411C69612B2205E0C00721D5686995
:1003B000411C6961202232541BE095F83A0000226A
:1003C000FFF76BFFC5E9000195F83800010710D56C
:1003D000D5E90023002B08BF002A0AD044F02000F2
:1003E000782806D1686930213154401C421C6A616A
:1003F0003454214668693044E86087E00868C01DCD
:1004000020F007000860D0E9002308300860C5E943
:100410000023D5E90001C80F04D06869411C696157
:100420002D220DE0288F810704D56869411C696180
:100430002B2205E0C00704D56869411C69612022B0
:10044000325468693044E8602146284600F0C4F917
:1004500092E005F13A02507820B14FF0FF340FF6E8
:10046000202062E01078622808D0682824D06A280A
:1004700012D06C282ED071280ED02BE00A680A60AA
:1004800052F8040B0A6020B94FF0FF340FF6082031
:100490004BE0E96A01706FE00A680A6052F8040BE9
:1004A0000A6020B94FF0FF340FF6EC103DE0EA6A25
:1004B000D317C0E900235FE00A680A6052F8040B12
:1004C0000A6020B94FF0FF340FF6CC102DE0E96A36
:1004D000018051E00A680A6052F8040B0A6020B9F2
:1004E0004FF0FF340FF6B0101FE0E96A016043E0FF
:1004F0000A680A6052F8040B0A60002120F000022A
:1005000021F0FF33C5E90023EE607821284600F092
:10051000BBF831E00868086050F8044B0860EC60F4
:100520003CB94FF0FF340FF6881000F03DFD201A63
:1005300070BD2E6B002E04D5204600F055FD0446FC
:1005400008E032460021204600F06AFD002814BF72
:10055000041B3446AC610FE06869411C69612522C7
:10056000325409E06969481C6861252272542100EF
:1005700002D0431C6B613454002070BD2DE9FC4156
:100580000F46064690467A6B7869396ABC6A121A39
:10059000B869521A796A121AF869521A121A97F837
:1005A0003800141B41070FD42020002C8DF80000C8
:1005B0000ADD254601236A463946304600F048FCEC
:1005C00000285DD16D1EF5D17B6942463946304623
:1005D00000F03EFC002853D130208DF800003D6A29
:1005E000002D09DD01236A463946304600F030FC13
:1005F000002845D16D1EF5D1BB69FA6839463046F1
:1006000000F026FC00283BD130208DF800007D6AE8
:10061000002D08DD01236A463946304600F018FCFB
:1006200070BB6D1EF6D1F868B969FB69421839468E
:10063000304600F00DFC18BB30208DF80000BD6A7C
:10064000002D08DD01236A463946304600F000FCE3
:10065000B0B96D1EF6D197F8380041070DD52020AE
:10066000002C8DF8000008DD01236A46394630462B
:1006700000F0EEFB20B9641EF6D10020BDE8F68143
:100680004FF0FF30BDE8F6812DE9FC4307466F29A6
:100690003E6908BF082405D041F02000782814BF27
:1006A0000A2410243C25D7E90023642918BF6929AE
:1006B0009046994605D1002B03D5D8F1000869EB87
:1006C0004909B9F1000F08BFB8F1000F1FD1386B0D
:1006D000E8B9082C4CD197F83800010748D53020EC
:1006E0003B2586F83B0043E000280ED597F83800FC
:1006F00000F01400102808D17B6B7969386A5B1A06
:100700001B1A9A1A002AC8BF3A62BDE8F3838DF813
:100710000010404649462246E31700F0ADFC303257
:10072000D0B26D1E3A28019504DB9DF80000A0F1BF
:1007300051018A187255404649462246E31700F097
:100740009BFC80465FEA010908BFB8F1000F03D0A7
:10075000F86871198842DCD3082C09D197F8380061
:10076000010705D5705D302802D06D1E3020705510
:10077000C5F13C02BA617119F960386B8242B3DA93
:10078000821A3A624FF6EF70398F01403987BDE81F
:10079000F3832DE9D04306460F4614464FF0000878
:1007A000DFF8109412E0E00707D542464B4630468A
:1007B000394600F079FD06460F4640464946424616
:1007C0004B4600F071FD641080468946002CEAD14A
:1007D00030463946BDE8D0832DE9F84F05468A46B4
:1007E0004AF020048EB0D5E90089612C02AE09D010
:1007F000286B002848BF062003D408BF672C01D10E
:1008000001202863D5E900014A005215521C0DD180
:100810000B030BD0AAF1610103201A29A86102D2AF
:100820000FF2A86110E00FF2A8610DE04A00521526
:10083000521C0ED10B030CD1AAF1610103201A291D
:10084000A86116D30FF29061E868032200F0FEFD64
:10085000C0E1CDE90C01DDE90C2323F00043B3F541
:10086000801F0DD20027002B08BF002A019703D15B
:1008700011E00FF26061E7E701AA00F03BFE0AE039
:10088000CD48CE4900EB1350DDE90C2301900B401D
:10089000CB4910461943C5E90001612C0DD1E86828
:1008A00030210170821CBAF1610FEA600CBF78211F
:1008B000582141706869801C6861D5E90001CDE963
:1008C0000C01DDE90C2333F0004104BF00280023B4
:1008D00000F04881612C40F0A080286B4946002838
:1008E0004CBF4FF0210B00F1010B404600220023CA
:1008F000DDE90C8900F036FE01990BF1010738BFE4
:1009000089F00049091F002F01918DF808200DF191
:10091000090040F33581A949009106464046494601
:100920000022002300F036FE80F029814800400DAF
:1009300000F11C0211D0002A0FDD40F2FF739A4231
:1009400005DBA04909F000400143002011E0009BB5
:10095000194041EA025140460BE028F0000039F00E
:10096000004108BF00280FBF49461C22494600F03D
:1009700029FE8046894600F0C3FEFF1F002F044673
:1009800009DD00F0DBFE02460B464046494600F01A
:10099000E7FE80468946F01D072104E004F00F02BF
:1009A00000F8012D2411002C01DD491EF6D5491E49
:1009B0005CBF002200F8012DF9D5DCE000201946CB
:1009C00002AA0A4400E05B1E12F80149491E844253
:1009D000F9D00F2804D10DF10900425C521C425499
:1009E000002904D50198001D02AE5B1C0190581E21
:1009F0000CD43118AAF13A040A783032D7B23A2F1F
:100A0000A8BFA218401E01F80129F5D5286B0028BF
:100A100040F1A780591E2963A3E001996A4A47F271
:100A20009750414391FBF2F2019229F00046D2F136
:100A3000070204DD40463146FFF7ABFE0AE05242B2
:100A400000206249FFF7A5FE02460B4640463146AC
:100A500000F0F8FE8046662C286B06BF019F0A371F
:100A600006273F18142FC8BF142730208DF8080020
:100A700089460DF1090000E03046002F34DD0646BE
:100A80004046494601F002F801460A4606F10803CD
:100A900004200A26B2FBF6F606EB860EA2EB4E0207
:100AA000303203F8012C0A22B6FBF2F202EB820E7E
:100AB000A6EB4E063036401E03F8026DE9D1083F22
:100AC000002F03F10806D7DD084600F0F3FF0246C9
:100AD0000B464046494600F043FE00223C4B00F0E6
:100AE000E3FB80468946CBE70DF10901401A0DF181
:100AF000090604E00199491E401E0191761C3178D7
:100B00003029F7D0662C02D10199491C03E0652CED
:100B10000CBF012100212B6BCB189842B8BF431E9C
:100B2000002B1ED4834204DAF05C3528A8BF39209C
:100B300000DA30201946721E02EB010800E05B1E4D
:100B400018F80199491E8145F9D0392802D1705C05
:100B5000401C7054002904D50198401C16465B1CAB
:100B60000190019800B200901BB2324651462846CF
:100B700000F034F82EE0C61D002F3FF7CFAE304610
:100B80000DF10901401A03465845C8BF5B46002BCA
:100B90000DF109063FF53AAF8342BFF60FAF0DF1F5
:100BA0000900C15C07297FF709AF0F2007E70000A4
:100BB000CBCCCC0C0000244002FCFFFFFFFF0F80D9
:100BC0000000E03F0000F07FA08601000000F03F41
:100BD00084D797410FB0BDE8F08F00002DE9FC43AA
:100BE000054683B01F46D5F83080002F164602DC3C
:100BF0005FF00107B9A6894649F02000BDF93040F1
:100C0000662808BF641C17D0672840F0888014F15C
:100C1000040FC0F28A80444580F2878095F838003E
:100C2000641C010702D44745B8BFB84620B2B8EBF0
:100C3000000848BF4FF000080FFA84F9E868A96976
:100C4000B9F1000F27DC4A1C30234354B8F1000FE0
:100C500003DC95F83800010703D5E9682E20885495
:100C6000521C18EB090FB8BFC8F1000424B260424F
:100C70006862A044B845AA61B8BF4746EB68A86956
:100C80003FB2EF613A463146184400F0DFFBA8EB73
:100C90000700A862C5E022B29742084419DA3A4632
:100CA000314600F0D3FBA8693818A9EB0707B8F163
:100CB000000FA8616F6203DC95F838100A0705D5AC
:100CC000EA682E211154E869401CE861C5F82880C3
:100CD000A7E0314600F0BAFBA8693F1BB8F1000F4E
:100CE000484403DC95F838100A0703D5EA682E213A
:100CF0001154401CA86138B28045EB68A869B8BFA0
:100D000047463AB206EB0901184400F09FFBA96977
:100D10003FB27918A8EB0707A9616F6281E0B9F1CA
:100D2000610F16D14FF0700918E0474504DA95F8C5
:100D300038100A0758BFB846B8F1010848BF4FF04D
:100D40000008B9F1670F14BF4FF045094FF065096E
:100D500004E0B9F1410F08BF4FF05009A969EB68F1
:100D6000481CA861B8F1000F16F8012B5A5403DC97
:100D700095F838100A0719D5EA68431CAB612E2193
:100D80001154B8F1000F11DD7F1E38B23146804595
:100D9000EE68B8BF47463AB2F01800F057FBA869B2
:100DA0003FB23818A861A8EB07006862E868A96933
:100DB0000844002C80F8009003D42B224270811C40
:100DC00003E02D2141706442811C00206A460AE044
:100DD00023460A2493FBF4F404EB8406A3EB4603B6
:100DE00002F8013B401C24B2002CF1DC012806DC97
:100DF00049F02002652A04BF302201F8012B48B9CE
:100E0000302001F8010B07E0401E1DF800303033A0
:100E100001F8013B0028F7DCEA68A8691044091AC8
:100E2000E96195F8380000F0140010280DD16A69C6
:100E3000A969686A8A18E9698218A86A8A188218F2
:100E4000686B8242BCBF821A2A6205B0BDE8F0839B
:100E5000F8B505460E4617461C46002074B117F833
:100E6000011BB068A847B06030B1F06A401CF06266
:100E70000020641EF3D1F2BD4FF0FF30F2BD000040
:100E80007072696E74665F733A20256E20646973B0
:100E9000616C6C6F776564007072696E74663A207D
:100EA00062616420256E20617267756D656E7400E5
:100EB0007072696E74665F733A2062616420257394
:100EC00020617267756D656E740000006E616E0062
:100ED0004E414E00696E6600494E46003000F0B447
:100EE0000246106895681318506803EB5004C00759
:100EF0001DD54D441BE013F8017B05F8017B491E0D
:100F0000F9D1A0B1B60813F8011B06F00306032EB1
:100F100008BF13F8016B01EB06214942801C2944EC
:100F200005D011F8016B05F8016B401EF9D1A34201
:100F30000ED013F8016B16F0030104BF13F8011B68
:100F4000C91C30090F28DAD113F8010B0F30D6E78E
:100F5000F0BC02F10C007047C9B202788A421AB1A3
:100F60001CBF10F8012FF9E718BF0020704730B4FC
:100F7000002513E050F8042BD30744BFA9F1010367
:100F80009A18091F042942F8045BFAD213468C0709
:100F900044BF15809B1CC90748BF1D7050F8041B37
:100FA0000029E7D130BC704780B500B906A00549DB
:100FB0000B681BB122220021984701E000F087FD59
:100FC000222002BDF8050020636F6E7374726169A0
:100FD0006E742068616E646C65723A206261642090
:100FE0006D6573736167650000F10103810704D0CB
:100FF00010F8011B820781B1FAD10268A2F1013118
:10100000914311F0803104BF50F8042FF6E709BA7C
:10101000B1FA81F100EBD100401CC01A70475200B8
:10102000C9B2830706D0521E22D310F8013B994261
:10103000F7D11FE0083A13D302F1040241EA01217B
:1010400041EA014150F8043B121F21BF4B40A3F17C
:10105000013C2CEA030C1CF0803FF3D0C9B2001F06
:10106000083210F8013B521E28BF91EA030FF8D84E
:1010700018BF0120401E7047BBBBE1B1B2F5803FF5
:1010800080F07E80022A1ED98C46B1FBF2F102FB71
:1010900011C31B0443EA1043B3FBF2FC02FB1C33F5
:1010A00080B240EA0343B3FBF2F002FB103240EAA5
:1010B0000C4000237047022A05D98446B0FBF2F0A9
:1010C00002FB10C270474AB105D100F00102490885
:1010D0005FEA3000704700220023704700F0FABC3E
:1010E0000B000200002100207047904271EB030CBE
:1010F000F6D3B3F5803F2FD2F0B5B3FA83F7B1FA48
:1011000081F4A7F10F0E3D1B5340CEF1200602FAE9
:101110000EF2F3415340B5F10F0746D80F3C2C4473
:101120004140C4F12006A040F1414140B1FBF3F63B
:1011300003FB1611A2FB0645001BA94102D2761E35
:101140008018594180EA010221FA0EF362FA0EF288
:1011500000215A403046F0BD30B4B1FBF3FC03FB34
:101160001C11A2FB0C45001BA94103D2ACF1010CE0
:101170008018594130BC02460B466046002170473A
:10118000B2F1807F65D3F0B5B2FA82F7B1FA81F49B
:10119000C7F10F063D1B22FA06F307F1110EF241CB
:1011A00020355A40B5F10F07B8D94140C4F12006A7
:1011B000A040F1414140B1FBF3FC03FB1C11A2FB39
:1011C0000C45001BA94103D2BCF1010C8018594108
:1011D0000F2F12D30F3FC90341EA5041B1FBF3F681
:1011E00003FB1611A2FB0645D4EBC030A94102D285
:1011F000761E8018594146EACC3C07B34140C7F1FE
:101200002006B840F1414140B1FBF3F603FB161153
:10121000A2FB0645001BA94102D2761E8018594147
:1012200080EA010221FA0EF3C7F1200462FA0EF2FD
:101230000CFA07F05A402CFA04F13043F0BD80EA72
:10124000010221FA0EF3002162FA0EF260465A40C2
:10125000F0BD8C46B1FBF2F102FB11C31B0243EA65
:101260001063B3FBF2FC02FB1C331B024CEA0020B0
:1012700043EA1063B3FBF2FC02FB1C331B024CEA93
:10128000002043EA1063B3FBF2FC02FB1C331B0299
:101290004CEA002043EA1063B3FBF2FC02FB1C3271
:1012A0004CEA002000237047B0B581EA030C0CF033
:1012B000004C40F2FF7515EA11541DBF15EA135793
:1012C000AC42AF4239E0E41923EA455343F48013BA
:1012D000C90241F0004141EA505EC7021100A7FB7C
:1012E000020200284FF00000EEFB01204FF0000149
:1012F000E3FB072118BF42F00102401800214941D9
:10130000E3FB0E01A4F580640F0302D252004041BA
:10131000494154F101046CDD470872F1004250F17B
:10132000000051EB0451A1F580115CBF41EA0C01B2
:10133000B0BD4CEA05510020B0BD05EA1357AC42E0
:1013400014BFAF4241E050EA410E1CBF52EA430EC7
:1013500002E061460020B0BD24423C441BD15FEA5C
:10136000070EF6D0090302BF01460020AEF1140EAD
:10137000B1FA81F7AEEB070401FA07FE0C37C7F1AB
:10138000200100FA07F7C8404EEA000E23EA455351
:1013900043F48013A2E733F00043B3FA83F704BFAA
:1013A000B2FA82FE77440B3FE41BB7F1200E2FBF49
:1013B00002FA0EF3BB40C7F1200E22FA0EFE38BF30
:1013C00043EA0E03BA40641C82E750EA410E14BFA0
:1013D00052EA430E6FF000014FF4001717EB430F72
:1013E0008ABF194617EB410FB5E74CEA05510020BB
:1013F000B0BDD4F10104B4F120070FDAC4F1200725
:10140000520828BF42F0010210FA07F501FA07F767
:10141000E1BF2A43E0403843E1400FE0352C98DC3F
:10142000C7F1200452EA400220FA07F218BF42F046
:10143000010231FA07F0A1400A43002172F1004293
:1014400050F1000051EB0C01B0BD570062B38B07A7
:1014500008D0521E11F8013B00F8013B00F0248037
:101460008B07F6D1830740F0208000BF103A07D3E6
:1014700030B4B1E83810103AA0E83810F9D230BCD6
:10148000530724BFB1E80810A0E8081044BF51F882
:10149000043B40F8043BD20724BF31F8022B20F86C
:1014A000022B44BF0B7803707047121F17D35B00E9
:1014B00009D151F8043B20F8023B1B0C121F20F805
:1014C000023BF6D20BE051F8043B00F8013B1B0A4B
:1014D00020F8023B1B0C121F00F8013BF3D238BF6F
:1014E000121D521E24BF11F8013B00F8013BF8D831
:1014F0007047000010B5144600F002F8226010BDDD
:10150000C1F30A5343B14A0012F5001F28D2A3F2D7
:10151000FE32A1EB0251704750EA410C20D001F09D
:10152000004C31EA0C01B1FA81F204BFB0FA80F349
:10153000D2180B3AB2F120032CBF00FA03F191400C
:1015400041EA0C013EBFC2F1200C20FA0CF3194312
:101550009040524240F2FD33D21A01EB03517047E2
:10156000002270474FF4001C1CEB410F94BF1CEB92
:10157000430F09E041EA030C50EA4C0C52EA0C0C10
:1015800003D2994208BF9042704714BF8B428242F7
:10159000704700004FF4001C1CEB410F94BF1CEB84
:1015A000430F09E041EA030C50EA4C0C52EA0C0CE0
:1015B00003D28B4208BF8242704714BF99429042C7
:1015C00070470000124254D440F2FF7C1CEA1153D1
:1015D0000FD0634531D09B1863453CBF01EB0251EE
:1015E000704701F0004141EA0C510020AFF3008048
:1015F000704750EA410320D001F0004C91EA0C0101
:101600001CD0B1FA81F30B3B9A420DD9D21A994002
:1016100051EA0C01C3F1200C20FA0CFC6144984003
:10162000531C40F2FF7CD7E7914041EA0C01C2F124
:10163000200C20FA0CF3194390407047B0FA80F365
:101640001533202BE0D3202AEED3203A203B9A42B8
:1016500009D9D21A00FA03F141EA0C010020531C07
:1016600040F2FF7CB8E700FA02F141EA0C010020E9
:101670007047524240F2FF7C1CEA11530DD0634583
:10168000DBD0B2EB030C3CBFA1EB025170470CF175
:10169000010221EA035141F4801150EA410CCCD0FF
:1016A00001F0004C352A27DC30B481EA0C01B2F19C
:1016B000200309DAC2F12003044601FA03F5D04001
:1016C0002843D1409C400CE0C3F12002450020FAA1
:1016D00003F418BF44F0010421FA03F091400C43D5
:1016E000002174F1004550F1000051EB0C0124423F
:1016F00030BC7FF47BAF70476146002076E7000086
:10170000C1F30A5340F2FE329B1A14DDD3F12003D9
:101710004FEAE17208DDC90241EA505141F0004050
:10172000D84080185040704703F2E13010B1D243E6
:1017300082F000407047002070470000C11768B178
:101740004840401AB0FA80F29040D21CC907C2F556
:10175000846241EA025202EBD0214005704700004A
:1017600070B44FF0004591EA030F40F1B5816B4032
:10177000841A71EB030603D2001BB14112197341A5
:101780004FF4001C1CEB410F34BF7CEB430442E0E0
:101790000C0DA4EB1356352E4FDC45EAC323DB0AB0
:1017A00045EAC121C912B6F120050DDD63FA05F63F
:1017B000EB4086EA0305124218BF45F00105C01848
:1017C00051F100010CD213E062FA06F5F2405540E7
:1017D000F3415A40B340F3405A408018594107D36F
:1017E00049085FEA30005FEA350528BF45F001058A
:1017F00001F58011420875F1004250F1000041EB03
:1018000004514E0016F5001F70BC38BF7047002011
:10181000090D090570471CEB410F10D252EA43062F
:101820000BD0BCEB410F05D80C0DAB43661E342E1C
:10183000B6DD02E0AB438018594170BC704770BC04
:1018400070470000F0B540F2FF7581EA030C0CF020
:10185000004C15EA11541DBF15EA1357AC42AF42B4
:10186000E5E0BC41C1F31301C3F31303801A9941AE
:1018700043F4801304D2641E40004941801859414A
:10188000C90241EA5051B1FBF3F603FB1611A2FB6A
:101890000675D7EBC020A94102D2761E80185941A7
:1018A000C90241EA5051B1FBF3FE03FB1E11A2FB3A
:1018B0000E75D7EBC020A94103D2AEF1010E8018FE
:1018C0005941890241EA9051760546EA8E2EB1FBD4
:1018D000F3F603FB1611A2FB0675D7EB8020A94196
:1018E00002D2761E80185941C90241EA50514EEA8F
:1018F000060EB1FBF3F603FB1611A2FB0675D7EB40
:10190000C020A94102D2761E80185941C90241EA7D
:101910005051B1FBF3F703FB1711A2FB0735D3EBD3
:10192000C020A94167F100070CBF004247F0010742
:1019300066F3D5274FEA1E31B80814F5806412DD2E
:10194000BD0775F1004250EB0E5051EB045111F5FB
:10195000801F5CBF41EA0C01F0BD4CF07F6141F09B
:10196000E0410020F0BDBD076D0840EA0E5041F493
:101970008011D4F10104B4F120060ADAC4F1200682
:101980000200E04001FA06F3E1401843B24015437B
:101990000EE0342C13DCC6F1200445EA40056D0846
:1019A00020FA06F2154321FA06F0A1400D4300216A
:1019B00075F1004250F1000051EB0C01F0BD002028
:1019C0005FEA0C01F0BDCFB992185B41B3FA83F71F
:1019D00004BFB2FA82F6BF190B3FB7F120062FBF42
:1019E00002FA06F3BB40C7F1200622FA06F638BF1A
:1019F0003343BA401CB1E419641E33E77F4231F02F
:101A00000041B1FA81F404BFB0FA80F6A4190B3C8E
:101A1000B4F120062FBF00FA06F1A140C4F1200660
:101A200020FA06F638BF3143A0403C1B1AE7AC420F
:101A30001ABF05EA1357AF4212E050EA41061CBF35
:101A400052EA4306BFE750EA4107304661461CBFF1
:101A500041EA0551F0BD52EA430C08BFC143F0BD55
:101A600000204FF4001616EB410F98BF16EB430F02
:101A700008BF16EB410F24BFC14305E016EB430F2F
:101A80000CBF61464CEA0551F0BD0000400D4918FD
:101A900040EA81200CD2490DA1F58061491C40F03B
:101AA000004005DBD1F11F0154BFC840C01770478B
:101AB00000207047014648B1B0FA80F18840C91C47
:101AC000C1F58461090501EBD02140057047012073
:101AD00000F0B8B870470000841A71EB030604D216
:101AE0006E40001BB141121973414FF4001C1CEBF6
:101AF000410F34BF7CEB430683E00C0DA4EB13567F
:101B0000362E00F37C80012E45EAC32341DC43EAF4
:101B1000525312BFD20292025B08240545EAC1214A
:101B200041EA5051D2EBC020994125D407D1B0FAF7
:101B300080F610FA06F162D00020203608E0B1FAF3
:101B400081F6B140C6F1200220FA02F21143B04002
:101B50004FEAF474B4EB465434F001064FEA7404CF
:101B60000AD8D6F50016760D04F00044F04061FA6C
:101B700006F25040F1404840C00A40EA415021F08E
:101B8000004128BF5FEA500550F1000044EBD1212D
:101B900035E0DB0A45EAC121C90AB6F120050EDDB0
:101BA00042EA0242120CC5F1200603FA06F6EB40A7
:101BB00042EA06056D42984161F100010DE062FACA
:101BC00006F5F240554063FA06FC82EA0C02F34047
:101BD0005A406D42904161EB030111F4801F05D121
:101BE000641E620502D06D004041494121F480111C
:101BF000430875F1004350F1000041EB045170BC03
:101C000070471CEB410F15D223F0004352EA430604
:101C10000BD04FEA4C0CBCEB410F04D80C0D661EE8
:101C2000342EB7DDEBE7801A994150EA410608BF30
:101C30000021E4E708BF1CEB430F28BF6FF0000151
:101C4000DDE7000080B5AFF30080024A11001820E4
:101C5000ABBEFBE7260002002DE9F04FDFF83C8920
:101C6000DFF83C99C8F80090DFF838A9C8F804A05C
:101C7000DFF834C9C8F808C0DFF830E9C8F80CE06C
:101C8000DFF82C69C8F81060DFF82879C8F81470FC
:101C9000DFF82409C8F81800DFF8E80AC8F81C00C3
:101CA000DFF81809C8F82000DFF81419C8F8241064
:101CB000DFF81029C8F82820DFF80C39C8F82C30D4
:101CC000DFF80839C8F83030DFF80449C8F8344084
:101CD000DFF80059C8F83850DFF8FCB8C8F83CB055
:101CE000DFF8F8B8C8F840B05FF0600889F8008005
:101CF0005FF0650889F801805FF0700889F802805C
:101D00005FF0750889F803805FF000088AF80080AA
:101D10005FF01408C1461FFA89F95FEA192959EAE8
:101D20000829ACF800905FF0140C8EF800C05FF04A
:101D3000180C8EF801C05FF0030C8EF802C05FF043
:101D40001B0C8EF803C05FF00E0C8EF804C05FF021
:101D5000320C8EF805C05FF0210C8EF806C05FF0E3
:101D6000020CE6461FFA8EFE5FEA1E2E5EEA0C2E7D
:101D7000A6F800E000263E70002605E0FE27DFF80A
:101D800038C80CF80670761C102EF7DB002605E02C
:101D90000027DFF8F0C90CF80670761C302EF7DB50
:101DA000002602E000278755761C042EFADB00206F
:101DB00002E000260E54401C0428FADB0220010039
:101DC00089B2090A51EA00211180042018704FF4E9
:101DD000B8702080702028802088010089B2090A0C
:101DE00051EA002121802888010089B2090A51EABC
:101DF00000212980BDE8F08F80B500F08CFD002027
:101E000002BD10B50024DFF8800910EB4400018802
:101E1000DFF8780900F0A8FD641C062CF3D3C5A0F8
:101E200000F0A2FD002010BD2DE9F04707000C00D6
:101E30000020002600E0761C300080B211280BDA6A
:101E40002168DFF84C09320092B250F8220000F00D
:101E50009FFD0028EFD13500B6B2112E06D1DFF874
:101E6000340900F081FD5FF0FF30C9E0DFF8286938
:101E7000FFB22800C0B236F81000401C874202D0E2
:101E80005FF0FF30BCE0002710E0380080B204EBC8
:101E90008000406800F028FEDFF800172A00D2B268
:101EA00051F822103A0092B288547F1C3800290061
:101EB000C9B236F8111080B28842E6D3DFF8DC7878
:101EC0003C00DFF8DC880221404600F07DFE642003
:101ED00000F0AAFE0221404600F079FEDFF8C49827
:101EE0002800C0B219F8000050F08000C0B200F025
:101EF000F3FE2800C0B219F8000004282AD13C00E3
:101F000000E0641E002C08D00121404600F052FE83
:101F10000028F6D100F005FF8246002C0AD10221EC
:101F2000404600F051FEDFF8800800F01DFD5FF034
:101F3000FF3065E05FFA8AFABAF1000F0AD1022198
:101F4000404600F041FEDFF8640800F00DFD7FF030
:101F5000010055E05FF0000A01E01AF1010A504665
:101F60002900C9B236F8111080B288421BD23C0059
:101F700000E0641E002C10D00121404600F01AFE43
:101F80000028F6D1DFF814062900C9B250F8210064
:101F9000514689B2405C00F09FFE002CDDD1DFF895
:101FA000080800F0E1FC0221404600F00DFE002C84
:101FB00006D1DFF8FC0700F0D7FC5FF0FF301FE030
:101FC0002800C0B219F8001051F08001DFF8E407D2
:101FD00000F0CAFC00240CE0DFF8C0052900C9B2FB
:101FE00050F82100025D2100DFF8CC0700F0BCFCB6
:101FF000641C2800C0B236F810008442ECDB0020DC
:10200000BDE8F0872DE9F0470C00C0B2012802D0EE
:102010005FF0FF308BE00020002600E0761C3000EF
:1020200080B211280BDA2168DFF86407320092B21F
:1020300050F8220000F0ACFC0028EFD13500B6B219
:10204000112E06D1DFF84C0700F08EFC5FF0FF3058
:102050006DE0DFF848773C00DFF844870221404616
:1020600000F0B2FD642000F0DFFD0221404600F0E8
:10207000AEFDDFF830972800C0B219F8000000F07C
:102080002BFE5FF0000A01E01AF1010ADFF8086791
:1020900050462900C9B236F8111080B288421BD2CE
:1020A0003C0000E0641E002C10D00121404600F0EE
:1020B00081FD0028F6D100F034FEDFF8E0142A009C
:1020C000D2B251F82210524692B28854002CDBD181
:1020D000DFF8D40600F048FC0221404600F074FD11
:1020E000002C06D1DFF8C80600F03EFC5FF0FF30A0
:1020F0001DE02800C0B219F80010DFF8C00600F09B
:1021000033FC00240CE0DFF894042900C9B250F835
:102110002100025D2100DFF8A80600F025FC641C08
:102120002800C0B236F810008442ECDB0020BDE885
:10213000F08700000A00000080B5C0B2012802D07C
:102140005FF0FF3016E008680078C0B2302808D190
:102150000020DFF850140870DFF8680600F004FC77
:1021600007E00120DFF83C140870DFF85C0600F09F
:10217000FBFB002002BD80B500F00EFE00F0F4FD78
:1021800080B20100DFF8440600F0EEFB002002BD43
:102190002DE9FC41C2256846DFF834160A68026062
:1021A000DFF8F8653400DFF8F8750221380000F038
:1021B0000BFD642000F038FD0221380000F007FD1F
:1021C0002800C0B200F088FD5FF0000801E018F1BF
:1021D0000108B8F1040F1BDA340000E0641E002C83
:1021E0000AD00121380000F0E5FC0028F6D100F00B
:1021F00098FD694601F80800002CE8D1DFF8A80531
:1022000000F0B2FB0221380000F0DEFC002017E0F5
:102210000221380000F0D8FCEDB22900DFF8B40547
:1022200000F0A2FB002508E023006846425D29007B
:10223000DFF8A40500F098FB6D1C042DF4DB0020F2
:10224000BDE8F6812DE9FC41C1256846DFF88C1513
:102250000A680260DFF844653400DFF84475022143
:10226000380000F0B1FC642000F0DEFC02213800F0
:1022700000F0ADFC2800C0B200F02EFD5FF00008B9
:1022800001E018F10108B8F1040F1BDA340000E096
:10229000641E002C0AD00121380000F08BFC0028BD
:1022A000F6D1684610F8080000F016FD002CE8D1C1
:1022B000DFF8F40400F058FB0221380000F084FC41
:1022C000002017E00221380000F07EFCEDB229006A
:1022D000DFF8000500F048FB002508E02300684611
:1022E000425D2900DFF8F80400F03EFB6D1C042D70
:1022F000F4DB0020BDE8F6812DE9F0410D00C0B20D
:10230000022802D05FF0FF3046E0286800F0ECFBC6
:1023100006001036686800F0E7FB0700DFF87C4431
:10232000DFF87C840221404600F04EFC642000F07F
:102330007BFC0221404600F04AFC3000C0B200F0B5
:10234000CBFC00E0641E002C09D00121404600F0C7
:1023500031FC0028F6D13800C0B200F0BDFC0221EB
:10236000404600F031FC002C04D1DFF83C0400F0C2
:10237000FBFA10E0F6B23100DFF8380400F0F4FAAE
:10238000FFB23900DFF85C0400F0EEFA2968DFF8EC
:10239000580400F0E9FA0020BDE8F0812DE9F0478B
:1023A0000C00C0B2012802D05FF0FF30A7E000208F
:1023B000002600E0761C300080B211280BDA21687C
:1023C000DFF8CC03320092B250F8220000F0E0FABD
:1023D0000028EFD13500B6B2112E06D1DFF8B403D4
:1023E00000F0C2FA5FF0FF3089E0DFF8B863280040
:1023F000C0B2305C062802D0082804D016E00120C4
:102400006C49087012E0002006E00021DFF8742318
:1024100003009BB2D154401C0100DFF87C232B0049
:10242000DBB232F8132089B29142EED3DFF86C733D
:102430003C00DFF86C830221404600F0C5FB6420BD
:1024400000F0F2FB0221404600F0C1FB2800C0B2C0
:10245000305C50F08000C0B200F03EFC5FF0000A3B
:1024600001E01AF1010ADFF8309350462900C9B2A1
:1024700039F8111080B2884219D23C0000E0641E85
:10248000002C0FD00121404600F094FB0028F6D12B
:1024900042482900C9B250F82100514689B2405C37
:1024A00000F01AFC002CDCD1BF4800F05DFA0221DC
:1024B000404600F089FB002C05D1BD4800F054FADD
:1024C0005FF0FF301BE02800C0B2315C51F08001AA
:1024D000B84800F049FA00240AE030482900C9B29F
:1024E00050F82100025D2100B34800F03DFA641C61
:1024F0002800C0B239F810008442EEDB0020BDE8AD
:10250000F0872DE9F041C0B2002802D05FF0FF3023
:1025100042E000200026A14D2800A14F02213800F2
:1025200000F052FB642000F07FFB0221380000F035
:102530004EFB9C483100C9B2405C00F0CDFB5FF01F
:10254000000801E018F10108404680B292493200CB
:10255000D2B231F81210491E884219DA2C0000E07C
:10256000641E002C0FD00121380000F023FB00284E
:10257000F6D100F0D6FB09493200D2B251F8221050
:10258000424692B28854002CDCD1874800F0ECF926
:10259000964800F0E9F90020BDE8F08150050020E0
:1025A000E005002007060020FC050020D4050020DF
:1025B000FE05002008060020C4050020E4050020D8
:1025C000E805002000060020090600200A06002079
:1025D00002060020040600200B0600200C06002046
:1025E0007FB50020ADF800008148009000F097F919
:1025F00000F08CF800F063FC7E4800F03FFC7E4861
:1026000000F03CFC7D4800F039FC7D4800F036FCD1
:102610007C4800F033FC7C4800F030FC7B4800F044
:102620002DFC7B4800F02AFC7A4800F027FC7A4811
:1026300000F024FC794800F021FCFFF70DFB784CFA
:102640004FF48041200000F0C2FA4FF40041200016
:1026500000F0BAFA4FF4FA7000F0E6FA4FF40041D5
:10266000200000F0B4FA4FF48041200000F0ACFAF2
:102670004FF4FA7000F0D8FA4FF48041200000F0D7
:10268000A6FA4FF40041200000F09EFA4FF4FA70D1
:1026900000F0CAFA002501A8624991E84C0080E8E0
:1026A0004C00012000F000FD00F0FFFD342000F0A0
:1026B0004DFE354E300000F008FE01A830F8151030
:1026C00016EB450000F024FE6D1C052DF5D100F041
:1026D000F5FD4FF48041200000F079FA4FF40041FD
:1026E000200000F071FA4FF47A7000F09DFA4FF478
:1026F0008041200000F068FA4FF40041200000F013
:1027000066FA4FF47A7000F08FFAE2E718B585B0F8
:102710004FF4804000F0FFFC0020009001208DF875
:10272000040001208DF805005FF460200290002075
:10273000039001208DF810003B4C6946200000F00A
:102740003FFE052301220E21200000F094FE01210E
:10275000200000F05AFE200000F064FE200000F08F
:1027600066FE0028FAD1200000F06AFE200000F08A
:102770006CFE0028FAD10121200000F06FFE06B0A7
:1027800010BD00009405002000500008183D00080E
:1027900024000020043F00087C0000208096980060
:1027A0000008014068000020643F0008E83C000881
:1027B0006C3D0008383E0008E43D0008183F000862
:1027C000503E0008B43F0008C03F00082C3F0008FE
:1027D00090400008683E0008003E00089440000851
:1027E0001C3E0008803E0008403F0008983E00085C
:1027F00080841E00A0000020B0000020C000002047
:10280000D0000020E000002000010020F0000020A7
:102810001001002020010020300100204001002094
:10282000000C0140CC3F00080024014080B500F0BE
:10283000E3FB5FF4803000F0FFFB00F019FCC0B256
:10284000012824D1002000F04DFC002000F05AFCAB
:102850004FF4806000F04EFC022000F013FD1020C9
:1028600000F019FD5FF4E0115FF4803000F020FC0F
:10287000012000F026FC392000F0C7FC0028FAD027
:10288000022000F022FC00F028FC0828FBD10121E6
:10289000082000F09EFC012144F2040000F099FCA5
:1028A00001214FF4047000F094FC0121082000F095
:1028B00090FC0121082000F08CFC01BD1CB54FF4F8
:1028C0008040ADF8000003208DF8020010208DF844
:1028D0000300234C6946200000F00CF94FF400403F
:1028E000ADF8000003208DF8020010208DF80300E1
:1028F0006946200000F0FEF813BD80B545F2555042
:1029000000F020FE032000F021FE012000F022FE56
:1029100000F024FE01BD80B500F025FE01BD10B51C
:10292000FFF784FF7FF0040000F05DFE4FF440707D
:1029300000F024FEFFF7E1FFFFF7C0FF094C5FF452
:10294000E131200000F06AFE012240F22551200012
:1029500000F0EBFE00F088F9642000F065F910BD8E
:10296000000C0140003801400EB4C0B5024603A877
:1029700000210190009101AB0121044878440C3002
:10298000FDF7B4FB06BC5DF810FB00BF2515000089
:1029900010F8012B11F8013B0AB19A42F8D0D01A75
:1029A000704700002DE9F84F84B00BB100241C6083
:1029B0000446A04601E008F1010898F80000A0F1E3
:1029C0000903052BF7D32028F5D02D2816BF2B2877
:1029D00018F8015B2B25002A019103D4012A01D0AC
:1029E000252A03DB002959D00C6057E0002A0CDDB2
:1029F000102A04BF98F80000302802BF98F80100A0
:102A000040F02000782811D10CE098F80000302820
:102A100018BF0A220AD198F8010040F02000782857
:102A200003D1102208F1020800E00822CDF80C8042
:102A300001E008F1010898F800003028F9D0074EAD
:102A40007E4418364FF0000906F12800CDF80880C2
:102A5000CA468DF8000017460CE000BF3C1200008B
:102A60009DF80010401ACA465FFA80FB07FB09B9BF
:102A700008F1010898F80010A1F141001A2838BFA8
:102A800020313A4606F12800FEF7CAFA0028E7D1BD
:102A90000399414504D1019800B10460002020E071
:102AA0000299F05DA8EB0101081A002810D406DC99
:102AB000B9EB0B0103D3B1FBF7F0504508D0AFF3EE
:102AC0000080049808B1012101604FF0FF3903E054
:102AD0002D2D08BFC9F10009019808B1C0F8008088
:102AE000484605B0BDE8F08FFFE700230A22002129
:102AF00058E70000F0B40022002200220022002249
:102B00000022CB7813F00F03CA78D20601D58A7859
:102B100013430A78120620D0066800241AE0CA7807
:102B2000482A16D1A740076113E0012717FA04F5D8
:102B30000A882A40AA420CD1A2000F259540AE4334
:102B400013FA02F232431600CA78282AE7D1A740C6
:102B50004761641C082CE8D306600A88B2F5807FC0
:102B600026DB4668002420E0012714F1080517FA47
:102B700005F50A882A40AA4216D1A2000F259540E1
:102B8000AE4313FA02F232431600CA78282A04D15F
:102B900014F1080217FA02F24261CA78482A03D1F6
:102BA00014F1080297400761641C082CDCD34660CE
:102BB000F0BC70470022806889B2084201D0012031
:102BC00000E00020C0B2704789B20161704789B24D
:102BD0004161704710B400220F2311F00302D2B2FA
:102BE000920013FA02F20F4B0C00E4B2A41053F857
:102BF000244034EA02020C00E4B2A41043F824207A
:102C00000A00D2B2921053F82240C0B211F003026F
:102C1000D2B2920090402043C9B2891043F82100FB
:102C200010BC70470800014042F2283148430B496C
:102C300008600B49002008600A4A106850F0010043
:102C40001060106810F001100128FAD010684008D8
:102C500040001060002008607047000014E000E0B1
:102C600018E000E010E000E01CB50E20ADF8000018
:102C700002208DF8020010208DF80300594C69469F
:102C80002000FFF737FF0120ADF8000002208DF88B
:102C9000020048208DF8030069462000FFF72AFF54
:102CA00000210020FFF796FF00210020FFF792FF90
:102CB0004FF4A06000F062FC06208DF804000020B4
:102CC0008DF8050000208DF8060001208DF8070022
:102CD00001A800F058FC13BD70B5040000251BE0EE
:102CE00004213000FFF773FF0AE03E4E0821300058
:102CF000FFF76DFF2006F3D504213000FFF764FFD6
:102D00000A2000F071F8640008213000FFF75CFF32
:102D10000A2000F069F86D1C2800C0B20828E4DB26
:102D200070BD70B50024002517E02E4E082130003C
:102D3000FFF74DFF0A2000F057F808213000FFF799
:102D400043FF640001213000FFF734FF002800D06A
:102D5000641C0A2000F048F86D1C2800C0B2082846
:102D6000E3DB2000C0B270BD38B500201D4D02214C
:102D70002800FFF72CFF4720FFF7AEFFFFF7D1FF3A
:102D800004002402FFF7CDFF044302212800FFF7CF
:102D90001BFF200080B232BD70B5124C082120000C
:102DA000FFF712FF4FF6FF75280000F01DF8022113
:102DB0002000FFF70CFF002603E0FF20FFF78CFF49
:102DC000761C3000C0B20A28F7DB02212000FFF792
:102DD000FBFE280000F008F802212000FFF7F7FEB4
:102DE00070BD00000008014001B402E00098401EE0
:102DF000009000980028F9D101B0704780B56F4865
:102E00000078002803D06E480068FFF7ADFD01BDD3
:102E1000E0B56C4801906C4800906C4B63A26C4923
:102E20006C48FFF7A1FD00200EBD10B50C00C0B22C
:102E3000012802D05FF0FF301FE021685CA0FFF79F
:102E4000A7FD002809D15D490878002801D101209B
:102E500008706148FFF788FD0EE0216855A0FFF774
:102E600097FD002808D155490878002801D0002096
:102E700008705A48FFF778FD002010BD70B50400B7
:102E8000574E3568002C02D15FF0FF3016E0082065
:102E900000F09AFC002802D15FF0FF300EE00460E1
:102EA000002141603168002903D13060002005E035
:102EB0006D6869680029FBD16860002070BD80B52D
:102EC0004848FFF7DBFF4848FFF7D8FFFFF796FFBA
:102ED00001BD2DE9F0418AB0002600206846282176
:102EE00000F096FC414F0FF2D0084146380000F048
:102EF00093FC04003A48056800E06D68002D28D076
:102F0000286801683800FFF743FD0028F5D1002C40
:102F100014D0002605E068463100C9B240F82140CF
:102F2000761C300029680979C0B2884206D2414631
:102F3000002000F071FC0400002CECD128688068AF
:102F40000028DAD069463000C0B22A6892689047FB
:102F500004E02748FFF708FD5FF0FF300AB0BDE846
:102F6000F08110B5040015480078002803D0200037
:102F7000C0B200F01BFC2000C0B20D280ED11D4CC9
:102F80002078002805D00020184922788854FFF7BF
:102F9000A0FF00202070FFF731FF06E0154813491D
:102FA00002788C540178491C017010BD313030001A
:102FB0004F4E00004F4646002000000064010020F4
:102FC00000000020DC3E0008903F0008843F00081D
:102FD000F43F0008C83E00089C3F0008A83F0008D6
:102FE000DC050020140000200400002068010020FF
:102FF000F03E000806060020DFF84C12086850F08A
:1030000001000860DFF844221368DFF8440203403F
:1030100013600B68DFF83C0203400B60086830F473
:1030200080200860106830F4FE0010605FF41F001C
:10303000DFF8241208607047DFF80C120A6832F4D7
:1030400080320A600A6832F480220A60B0F5803F5C
:1030500003D0B0F5802F05D009E0086850F4803027
:10306000086004E0086850F4A0200860FFE770479B
:1030700080B50020009000200020312000F0C5F82D
:103080000099491C00910099B1F5A06F02D0C0B21F
:103090000028F2D0312000F0B8F8002801D001203B
:1030A00000E00020C0B202BDC0B26C4908607047A9
:1030B0000022664B1A6832F47C12084310431860F1
:1030C0007047C0B266490860704700215F4A1168C6
:1030D000890889000843106070475C48006810F058
:1030E0000C0070470021594A116831F0F001084383
:1030F000106070470021554A116831F4E0610843BF
:10310000106070470021514A116831F4605151EA52
:10311000C0011160704700214C4A116831F44041F0
:1031200008431060704710B40021002100210021E5
:10313000464A116811F00C01002904D0042905D079
:10314000082906D01EE0484901601DE0464901609B
:103150001AE0136813F47013116811F480319B0C9A
:103160009B1C002903D141494B43036009E01168CE
:10317000890303D53D494B43036002E03A494B4381
:10318000036001E038490160116811F0F00109099C
:10319000374B595C0468CC404460116811F4E0611D
:1031A000090A595C4468CC408460116811F460518C
:1031B000C90A595C4368CB40C360116811F44041AF
:1031C000890B2C4A515CC268B2FBF1F1016110BC61
:1031D0007047C9B2002904D027490A681043086023
:1031E00004E025490A6832EA000008607047C9B265
:1031F000002904D021490A681043086004E01F49EF
:103200000A6832EA000008607047002100210021AE
:103210000100C9B24909C9B2012902D10A490968A4
:1032200006E0022902D10F49096801E01449096842
:10323000C0B210F01F00C140C80701D5012000E056
:103240000020C0B27047000000100240041002408D
:103250000000FFF8FFFFF6FE0810024000004242A7
:10326000600042422010024000127A0000093D0036
:103270005001002060010020181002401C10024084
:10328000241002400021DFF8F420116811F0380109
:10329000084310607047DFF8E4100A6832F010024B
:1032A0000A600A68104308607047DFF8D400DFF84E
:1032B000D4100160DFF8D01001607047DFF8CC0057
:1032C000016851F080010160704738B504000420A6
:1032D0005FF4302000F060F80100C9B2042915D174
:1032E000DFF8A850286850F002002860DFF8A0003E
:1032F0000460286850F0400028605FF4302000F03F
:103300004BF82A6841F6FD710A402A60C0B232BD0E
:1033100070B504000D0004204FF4005000F03CF89C
:103320000100C9B204290FD1DFF86060306850F0A5
:103330000100306025804FF4005000F02DF8326815
:1033400041F6FE710A403260C0B270BD114908609A
:10335000704704200F480168C90701D501200AE021
:103360000168490701D5022005E00068C00601D5C3
:10337000032000E00420C0B270470000002002409B
:103380000420024023016745AB89EFCD10200240A5
:10339000142002400C20024010B504000420FFF766
:1033A000D8FF02E0FFF7D5FF641E0100C9B2012972
:1033B00001D1002CF6D1002C00D10520C0B210BDE7
:1033C00030B4002200234468DFF8702114400A68FA
:1033D0000D7952EA0522144344608468DFF86021C5
:1033E0001440CD688A6815434A7955EA42052C4352
:1033F0008460C26A32F47002097C491E0B43DBB25E
:1034000052EA0352C26230BC7047C9B2002904D0EC
:10341000816851F00101816003E081684908490039
:1034200081607047816851F0080181607047002118
:103430008068000701D5012000E00020C0B270477D
:10344000816851F004018160704700218068400765
:1034500001D5012000E00020C0B27047C9B20029A8
:1034600004D0816851F4A001816003E0816831F4E7
:10347000A00181607047F0B4002400240C00E4B285
:103480000A2C11DBC5680727B1F10A06032466433D
:1034900017FA06F6B543DBB2B1F10A060324664318
:1034A000B3402B43C3600EE004690726032505FBE8
:1034B00001F516FA05F5AC43DBB2032505FB01F572
:1034C000AB40234303611300DBB2072B0FDA446BDD
:1034D0001F26551E05235D4316FA05F5AC43C9B2F8
:1034E000531E0522534399402143416324E01300B6
:1034F000DBB20D2B0FDA046B1F26D51F05235D43AE
:1035000016FA05F5AC43C9B2D31F052253439940BF
:103510002143016310E0C46A1F26B2F10D050523A3
:103520005D4316FA05F5AC43C9B2B2F10D030522AD
:10353000534399402143C162F0BC7047FFFEF0FF46
:10354000FDF7F1FF80B20A4908607047C0B209492F
:103550000860704780B20849086070474AF6AA20A0
:103560000349086070474CF6CC4001490860704739
:10357000003000400430004008300040214908433A
:10358000214908607047002100210F23C1780029DC
:103590001ED01D49096811F4E061D1F5E061090A06
:1035A000D1F10402CB40417811FA02F281780B404C
:1035B0001A43120115490378CA540121027812F006
:1035C0001F029140124A0078401142F8201009E091
:1035D0000121027812F01F0291400E4A007840113A
:1035E00042F820107047042805D10B48016851F0BB
:1035F0000401016004E00848016831F00401016041
:10360000704700000000FA050CED00E000E400E067
:1036100000E100E080E100E010E000E078B585B076
:103620000C00002500E06D1C2900C9B2032907D257
:1036300062492A00D2B25201114449688842F2D14B
:103640005E4E2800C0B24001304440685A4988426A
:1036500007D101212800C0B240013058FFF7B9FD61
:1036600006E001212800C0B240013058FFF7BFFD3D
:1036700001212800C0B24001304480682A00D2B243
:10368000520132445269104350F00100FFF7A1FD8E
:103690002800C0B240013044008AADF80000182074
:1036A0008DF8030003208DF8020069462800C0B29F
:1036B00040013044C068FFF71DFA2800C0B2400145
:1036C0003044808BADF8000004208DF8030069467B
:1036D0002800C0B2400130448069FFF70BFA019422
:1036E0000020ADF808000020ADF80A000020ADF879
:1036F0000C000020ADF810000C20ADF80E0001A960
:103700002800C0B240013044406800F0ABF801210D
:10371000EDB268013044406800F006F9012144F23E
:103720000400FFF756FD06B070BD7CB504000D0027
:1037300016002148844217D125208DF80000002072
:103740008DF8010000208DF8020001208DF80300A3
:103750006846FFF718FF3200D2B2290089B2200074
:1037600000F0F0F8002076BD1548844203D12620F1
:103770008DF80000E3E71348844203D127208DF839
:103780000000DCE75FF0FF30EDE738B504000D0026
:103790002900C9B289B2200000F0FEF88021200083
:1037A00000F002F90028F9D0280032BD80B50100F0
:1037B0000148FFF7EAFF02BD00380140E43B000882
:1037C000004400400048004070B5C51DED08AFF34F
:1037D0000080ED00072D98BF08250C4E346814B109
:1037E0002068A84208D200F01FF900283060F4D108
:1037F000AFF30080002070BD6119451B14BF0D6040
:1038000000213160AFF30080204670BDF00500203C
:10381000002200F01FB9000038B504000D460BD09F
:103820002946204600F02FF90444207848B90C4876
:1038300000210160002032BD09490C68002CEFD145
:1038400032BD2946204600F02FF92118087810B122
:10385000002201F8012B02480160204632BD00BF62
:10386000EC05002078B585B005000C000020002094
:10387000002000200020A08900282E00298A4CF674
:10388000FF700140E08801432982A9894EF6F310B8
:103890000140A28820890243608902431143A98123
:1038A000A98A4FF6FF400140A0890143A9826846DA
:1038B000FFF739FC1B48864201D1039900E00299C9
:1038C000A889000406D51920414320684000B1FBB7
:1038D000F0F205E01920414320688000B1FBF0F2CE
:1038E0006420B2FBF0F109010B001B09642000FB0E
:1038F0001322A889000408D5D00032306422B0FB1E
:10390000F2F010F00700014307E0100132306422AA
:10391000B0FBF2F010F00F000143298106B070BD3A
:103920000000000000380140C9B2002904D081899C
:1039300051F40051818104E082894DF6FF710A4003
:103940008281704710B400230023002300230B0062
:1039500040F66A149BB2A3420B00DBB25B09DBB2F8
:1039600089B211F01F01012414FA01F1012B01D1D8
:103970000C3004E0022B01D1103000E01430D2B240
:10398000002A03D002681143016003E0026832EAB2
:103990000101016010BC7047C905C90D81807047E5
:1039A0008088C005C00D704700220A0092B2B2F5AF
:1039B000007F0088084201D0012000E00020C0B252
:1039C000704710B400220022002200220A0040F6B4
:1039D0006A1392B29A420B00DBB25B09DBB20A00B7
:1039E00092B212F01F02012414FA02F2012B02D14A
:1039F00083891A4006E0022B02D1038A1A4001E0B3
:103A0000838A1A4089B2090A89B214FA01F100883E
:103A10000140002A03D0002901D0012000E000204D
:103A2000C0B210BC704700000749086808B1002008
:103A300070470648C008C00008600549C908C900A9
:103A4000091A0160704700BFF4050020170A002022
:103A5000100C002000B500BF1300964694461039A4
:103A600028BFA0E80C50FAD85FEA417C28BF0CC000
:103A700048BF40F8042BC90728BF20F8022B48BFD5
:103A800000F8012B00BD70B4044604E015F8016B8A
:103A9000B34203D1641C23781BB10D462A78002A57
:103AA000F4D1201A70BC704770B4044600E0641C66
:103AB00023783BB10D462A78002AF8D015F8016B1F
:103AC000B342F8D1201A70BC7047000080B53E495F
:103AD000086850F0010008603C4A13683C48034005
:103AE00013600B683B4803400B60086830F480208B
:103AF0000860106830F4FE0010605FF41F00364963
:103B0000086000F005F85FF000603449086001BD0E
:103B100080B500F001F801BD82B0002001900020C6
:103B200000902949086850F480300860086810F453
:103B3000003000900198401C01900098002803D1AB
:103B40000198B0F5A06FF1D10868800302D501207B
:103B5000009001E0002000900098012831D1204819
:103B6000026852F0100202600268D208D2000260BD
:103B7000026852F0020202601448026802600268A1
:103B80000260026852F480620260026832F47C12C1
:103B90000260026852F4E81202600A6852F0807211
:103BA0000A600A689201FCD50168890889000160F1
:103BB000016851F002010160016811F00C0108294F
:103BC000FAD102B070470000001002400410024019
:103BD0000000FFF8FFFFF6FE0810024008ED00E0CD
:103BE00000200240004000000038014004000000B6
:103BF000000801400002000004000000000801402D
:103C00000004000000000200004400400400000026
:103C1000000801400400000004000000000801400A
:103C200008000000000004000048004008000000F8
:103C3000000C01400004000004000000000C0140E2
:103C4000000800007047FEE7FEE7FEE7FEE770476A
:103C500070477047704710B50E4C08212000FFF7E1
:103C6000A3FE012803D12000FFF79AFE10E040F2E6
:103C700025512000FFF7A5FE012809D12000FFF7FC
:103C80008FFE0100C9B20A2902D0C0B2FFF769F95C
:103C900010BD00000038014000002115110E0D0C70
:103CA0000B0B0A0A09090909090808080808080885
:103CB00007070707070707070707070707000000A9
:103CC0003031323334353637383961626364656692
:103CD0006768696A6B6C6D6E6F70717273747576FC
:103CE0007778797A00000000444554206E6F742084
:103CF00072657365742C2063616E6E6F74207570CD
:103D0000617465207468652054696D652053746121
:103D10006D70210A000000000D0AB6C1C8A1C4DA06
:103D2000B2BF464C415348B8C3B5D8D6B7B4E6B4D1
:103D3000A2B5C4C4DAC8DDCEAAA3BA30782530341F
:103D40007800000010B5074979441831064C7C44CE
:103D5000163404E00A68081D114488470146A14250
:103D6000F8D110BD2C00000048000000436F6D6DBD
:103D7000616E64206E6F742066756C6C66696C652C
:103D80006420636F72726563746C7921210A00008C
:103D9000DFD1FFFFA8040000680100200000000040
:103DA0003FD1FFFF9C030000C8010000000000207D
:103DB00000F00DF8002801D0FFF7C4FFAFF300803A
:103DC0000020AFF30080FEF70BFC00F002F80120AA
:103DD000704700F001B8000007463846FDF732FF93
:103DE000FBE70000202D2073706920646174613E40
:103DF0003E5B25645D3A203078253032780A000039
:103E00005265616420446174615B25645D3A2030D1
:103E10007825303278206E3D25640A0053656E7433
:103E200020446174615B25645D3A2030782530322E
:103E300078206E3D25640A000A202D2073706920C9
:103E4000636D643E3E3A203078253032780A0000B7
:103E500073706920646174613C3C5B25645D3A2049
:103E60003078253032780A000A53656E7420436F2B
:103E70006D6D616E643A203078253032780A00002A
:103E8000202D2073706920646174613E3E3A2030B9
:103E900078253032780A00005350492074657374D5
:103EA00020636F6D706C65746564210A000000000A
:103EB00038B504460D462846FFF778FCA84218BFDF
:103EC0000024204632BD00000A2573202573200AF5
:103ED00025732C25730A25730A000000434F50599F
:103EE00052494748542053494E455445510000001B
:103EF0000D4572726F7220436F6D6D616E64210AA1
:103F000000000000436F6D6D616E64206E6F742061
:103F10006578697374210A000A73706920636D649F
:103F20003E3E3A203078253032780A000D0A41446E
:103F300043204944A3BA3078253034780A00000081
:103F4000202D205265672325732075706461746588
:103F500064210A002D2D2D2D636C692D2D2D2D0A28
:103F6000000000005350492054696D656F7574213D
:103F70000A0000000148804701480047CD3A000888
:103F8000D93F000841707220323120323032350082
:103F900031363A31333A3232000000000A45636864
:103FA0006F206F6E2E0A00000A4563686F206F66EF
:103FB000662E0A000A4D6F6465203D2030210A00FC
:103FC0000A4D6F6465203D2031210A000200040083
:103FD000030008000A000000AFF30080AFF3008088
:103FE000FFF7E6FE4D2E5645520000004543484F70
:103FF000000000005369503130300000505244320C
:1040000000000000414443454E0000005245463147
:104010000000000052454632000000005245534562
:104020005400000052454144000000005350493103
:104030000000000052442E544800000057522E54F5
:1040400048000000575245470000000053504958AF
:1040500000000000544800004D440000505700008C
:10406000445400005052440044455400554400005C
:104070004444000050310000503200004144000030
:104080004144310041443200534D4400524D000040
:10409000A1E5A9F5A1E5A9F5FFF7FEBFFFF7FEBF72
:1040A000FFF7FEBFFFF7FEBFFFF7FEBFFFF7FEBF44
:1040B000FFF7FEBFFFF7FEBFFFF7FEBFFFF7FEBF34
:1040C000FFF7FEBFFFF7FEBFFFF7FEBFFFF7FEBF24
:1040D000FFF7FEBFFFF7FEBFFFF7FEBFFFF7FEBF14
:1040E000FFF7FEBFFFF7FEBFFFF7FEBFFFF7FEBF04
:1040F000FFF7FEBFFFF7FEBFFFF7FEBFFFF7FEBFF4
:10410000FFF7FEBFFFF7FEBFFFF7FEBFFFF7FEBFE3
:10411000FFF7FEBFFFF7FEBFFFF7FEBFFFF7FEBFD3
:10412000FFF7FEBFFFF7FEBFFFF7FEBFFFF7FEBFC3
:10413000FFF7FEBFFFF7FEBFFFF7FEBFFFF7FEBFB3
:104140001003543F0008E4041200011003112E0074
:1041500008010943EC3F08522B101003544000089B
:104160005804125C04126004126404126804126C95
:104170000412700412740412780412FC38127C08C1
:10418000120404120C041214041280041284041089
:104190000F0102030405060708090A0B0C0D0E0F98
:1041A000202158100104000102100107000206102E
:1041B000011000301032040C1201064108400200C8
:1041C000001C409C43F91D8C52241043031E1052C6
:1041D0002C1043772110523410529110523C10434E
:1041E00045221010031E100008020843052010107D
:1041F000034A1400080A08522950438840085239DB
:10420000404344403052F940528C20439D23086281
:104210004C90422510210121EC210421EF000302E2
:044220000406080187
:0400000508003FD9D7
:00000001FF
